:020000040800F2
:10000000FFFF0020E50100082D020008390200086A
:1000100041020008490200085102000800000000E7
:10002000000000000000000000000000590200086D
:100030006502000800000000710200087516000843
:1000400029020008290200082902000829020008E4
:1000500029020008290200082902000829020008D4
:1000600029020008290200082902000829020008C4
:1000700029020008290200082902000829020008B4
:1000800029020008290200082902000829020008A4
:100090002902000829020008290200082902000894
:1000A0002902000829020008290200082902000884
:1000B0002902000829020008290200082902000874
:1000C0002902000829020008290200082902000864
:1000D0002902000829020008551A00082902000810
:1000E0002902000829020008290200080000000077
:1000F0000000000000000000000000000000000000
:100100000000000000000000290200082902000889
:100110002902000829020008290200082902000813
:100120002902000829020008290200082902000803
:1001300029020008290200082902000829020008F3
:1001400029020008290200082902000829020008E3
:10015000000000000000000000000000000000009F
:10016000000000000000000000000000000000008F
:10017000000000000000000000000000000000007F
:10018000000000000000000000000000000000006F
:10019000000000000000000000000000000000005F
:1001A000000000000000000000000000000000004F
:1001B000000000000000000000000000000000003F
:1001C000000000000000000000000000000000002F
:1001D000000000000000000000000000000000001F
:0401E0005FF8E0F1F3
:1001E400002103E00A4B5B584350043109480A4B91
:1001F40042189A42F6D3094A02E0002342F8043B2B
:10020400074B9A42F9D300F037F801F05BF97047D5
:10021400BC1E000800000020140000201400002070
:1002240014000020FEE7000080B400AFBD4680BC8F
:10023400704700BF80B400AFFEE700BF80B400AFDA
:10024400FEE700BF80B400AFFEE700BF80B400AF9C
:10025400FEE700BF80B400AFBD4680BC704700BF5E
:1002640080B400AFBD4680BC704700BF80B400AF0F
:10027400BD4680BC704700BF80B500AF1A4B1A4A18
:10028400126842F001021A60174A174B5968174B5B
:1002940001EA03035360144A134B1B6823F084736D
:1002A40023F480331360104B0F4A126822F4802227
:1002B4001A600D4B0C4A526822F4FE025A600A4B33
:1002C400094A126822F0A0521A60074B4FF47F02C9
:1002D4009A60054B4FF00002DA6200F00BF8044B11
:1002E4004FF000629A6080BD001002400000FFF0F1
:1002F40000ED00E080B500AF00F002F880BD00BF63
:1003040080B483B000AF4FF000037B604FF0000374
:100314003B60494B484A126842F480321A60464BAB
:100324001B6803F400333B607B6803F101037B60CB
:100334003B68002B03D17B68B3F5A06FEFD13E4B34
:100344001B6803F40033002B03D04FF001033B6020
:1003540002E04FF000033B603B68012B67D1374B51
:10036400364A126842F010021A60344B334A12685B
:1003740022F003021A60314B304A126842F0020242
:100384001A602D4B2C4A52685A602B4B2A4A5268E9
:100394005A60294B284A526842F480625A60264ABD
:1003A400254BD96A264B01EA0303D362224A224B26
:1003B400DB6A43F4823343F41173D3621E4B1E4A47
:1003C400126842F080621A6000BF1B4B1B6803F086
:1003D4000063002BF9D0184B174A526822F47C12A0
:1003E4005A60154B144A526842F4E8125A60124B90
:1003F400114A126842F080721A6000BF0E4B1B68EB
:1004040003F00073002BF9D00B4B0B4A526822F017
:1004140003025A60084B084A526842F002025A60CA
:1004240000BF054B5B6803F00C03082BF9D107F1FF
:100434000C07BD4680BC70470010024000200240FB
:1004440000F0FEFF80B487B000AF78604FF0000387
:100454007B614FF000033B614FF00F03FB607B684F
:10046400DB78002B3FD02B4BDB686FEA030303F4EC
:10047400E0634FEA13237B617B69C3F104033B61AF
:100484007B69FA6822FA03F3FB607B685B781A469F
:100494003B6902FA03F37B617B689B781A46FB682D
:1004A40002EA03037A6942EA03037B617B694FEA48
:1004B40003137B6118497B681B787A69D2B2CB1825
:1004C40083F80023144B7A6812784FEA5212D2B29E
:1004D4007968097801F01F014FF0010000FA01F179
:1004E40043F8221011E00C4B7A6812784FEA52124A
:1004F400D2B27968097801F01F014FF0010000FAC7
:1005040001F102F1200243F8221007F11C07BD4655
:1005140080BC704700ED00E000E100E080B489B0E9
:1005240000AF786039604FF00003FB614FF00003C7
:100534003B614FF00003BB614FF00003FB604FF0E1
:1005440000037B614FF00003BB603B68DB7803F082
:100554000F03FB613B68DB7803F01003002B05D02D
:100564003B689B78FA6942EA0303FB613B681B889A
:1005740003F0FF03002B51D07B681B687B614FF0B5
:100584000003BB6144E0BB694FF0010202FA03F3CC
:10059400FB603B681B881A46FB6802EA03033B6165
:1005A4003A69FB689A422FD1BB694FEA8303FB6027
:1005B400FB684FF00F0202FA03F3BB60BB686FEAFB
:1005C40003037A6902EA03037B61FB68FA6902FAAE
:1005D40003F37A6942EA03037B613B68DB78282BE7
:1005E40007D1BB694FF0010202FA03F27B685A613A
:1005F4000AE03B68DB78482B06D1BB694FF0010267
:1006040002FA03F27B681A61BB6903F10103BB615F
:10061400BB69072BB7D97B687A691A603B681B886A
:10062400FF2B56D97B685B687B614FF00003BB618D
:1006340049E0BB6903F108034FF0010202FA03F336
:10064400FB603B681B881A46FB6802EA03033B61B4
:100654003A69FB689A4232D1BB694FEA8303FB6073
:10066400FB684FF00F0202FA03F3BB60BB686FEA4A
:1006740003037A6902EA03037B61FB68FA6902FAFD
:1006840003F37A6942EA03037B613B68DB78282B36
:1006940008D1BB6903F108034FF0010202FA03F227
:1006A4007B685A613B68DB78482B08D1BB6903F14E
:1006B40008034FF0010202FA03F27B681A61BB6976
:1006C40003F10103BB61BB69072BB2D97B687A696B
:1006D4005A6007F12407BD4680BC704780B485B0DA
:1006E40000AF78600B467B804FF00003FB737B68A0
:1006F4009A687B8802EA0303002B03D04FF00103BE
:10070400FB7302E04FF00003FB73FB7B184607F119
:100714001407BD4680BC704780B483B000AF7860D6
:100724000B467B807A887B681A6107F10C07BD460B
:1007340080BC704780B483B000AF78600B467B8088
:100744007A887B685A6107F10C07BD4680BC704704
:1007540080B487B000AF78600B46FB704FF00003A5
:100764003B614FF00003FB604FF000037B614FF0EF
:100774000003BB607B68002B03DA354BDB697B61CC
:1007840002E0334B5B687B617B6803F470234FEAC0
:100794001343BB607B684FEA03434FEA13433B6157
:1007A4007B6803F44013B3F5401F0AD17B6923F03F
:1007B40070637B61264B264A526822F070625A604D
:1007C40028E07B6803F48013002B11D0BB684FF042
:1007D400030202FA03F3FB60FB686FEA03037A691E
:1007E40002EA03037B617B6943F070637B6111E080
:1007F4007B684FEA53534FEA03133A6902FA03F34F
:100804006FEA03037A6902EA03037B617B6943F0BD
:1008140070637B61FB78002B0BD07B684FEA5353EA
:100824004FEA03133A6902FA03F37A6942EA0303CB
:100834007B617B68002B03DA054B7A69DA6102E09D
:10084400034B7A695A6007F11C07BD4680BC7047A8
:100854000000014080B58AB000AF786039604FF085
:100864000003FB844FF000037B844FF00403BB843C
:10087400604BFB617B689B88FB84FB8C23F03F030C
:10088400FB8407F10803184600F0B0F93B69FB61EB
:10089400FA69594BA3FB02134FEA93437B84FA8C06
:1008A4007B8C42EA0303FB847B68FA8C9A807B6826
:1008B4001B889BB223F001039AB27B681A804FF025
:1008C4000003FB843B681A684C4B9A4219D83B6876
:1008D4001B684FEA4303FA69B2FBF3F3BB84BB8C96
:1008E400032B02D84FF00403BB84FA8CBB8C42EA7E
:1008F4000303FB847B8C03F101039AB27B681A84A3
:1009040049E03B68DA884BF6FF739A420AD13B68A8
:100914001A6813464FEA43039B18FA69B2FBF3F3D0
:10092400BB8410E03B681A6813464FEA83039B18A4
:100934004FEA83029B18FA69B2FBF3F3BB84BB8CC6
:1009440043F48043BB84BB8C4FEA03534FEA1353F5
:10095400002B03D1BB8C43F00103BB84BA8CFB8C0A
:1009640042EA03039BB26FEA43436FEA5343FB84B7
:100974007B8C4FF4967202FB03F3214A82FB031231
:100984004FEAA2124FEAE373D31A9BB203F10103B5
:100994009AB27B681A847B68FA8C9A837B681B887A
:1009A4009BB243F001039AB27B681A807B681B8870
:1009B400FB84FB8C23F4806323F00A03FB843B68F1
:1009C4009A883B685B8942EA03039AB2FB8C42EA49
:1009D4000303FB847B68FA8C1A803B689A893B6822
:1009E4001B8942EA03039AB27B681A8107F128073C
:1009F400BD4680BD00127A0083DE1B43A086010041
:100A0400D34D621080B483B000AF78600B46FB70A6
:100A1400FB78002B08D07B681B889BB243F0010352
:100A24009AB27B681A8007E07B681B889BB223F02C
:100A340001039AB27B681A8007F10C07BD4680BC9B
:100A4400704700BF80B483B000AF78600B46FB7082
:100A5400FB78002B08D07B681B889BB243F480731F
:100A64009AB27B681A8007E07B681B889BB223F4E8
:100A740080739AB27B681A8007F10C07BD4680BC6C
:100A8400704700BF80B483B000AF78600B46FB7042
:100A9400FB78002B08D07B681B889BB243F400735F
:100AA4009AB27B681A8007E07B681B889BB223F4A8
:100AB40000739AB27B681A8007F10C07BD4680BCAC
:100AC400704700BF80B483B000AF78600B46FB7002
:100AD400FB78002B08D07B681B889BB243F48063AF
:100AE4009AB27B681A8007E07B681B889BB223F468
:100AF40080639AB27B681A8007F10C07BD4680BCFC
:100B0400704700BF80B483B000AF78600B46FB70C1
:100B1400FB789AB27B681A8207F10C07BD4680BC49
:100B2400704700BF80B483B000AF78607B681B8AD5
:100B34009BB2DBB2184607F10C07BD4680BC704778
:100B440080B483B000AF786013460A46FA70BB7075
:100B5400BB78002B04D0FB7843F00103FB7003E067
:100B6400FB7823F00103FB70FB789AB27B681A824E
:100B740007F10C07BD4680BC704700BF80B487B046
:100B840000AF786039604FF000033B614FF0000321
:100B9400FB604FF00003BB604FF00003FB757B6804
:100BA4009B8A9BB2FB607B681B8B9BB2BB60BB6860
:100BB4004FEA0343BB60FA68BB6842EA030323F0CD
:100BC4007F433B613A693B681A403B689A4203D1D0
:100BD4004FF00103FB7502E04FF00003FB75FB7D52
:100BE400184607F11C07BD4680BC704780B48BB023
:100BF40000AF78604FF000033B624FF000037B626C
:100C04004FF00003FB614FF00003BB614FF00003A2
:100C14007B614FF000033B614FF00003FB604FF03A
:100C24000003BB60694B5B6803F00C033B623B6AE7
:100C3400042B07D0082B09D0002B65D17B68644AAC
:100C44001A6065E07B68634A1A6061E05F4B5B6829
:100C540003F470137B625D4B5B6803F48033FB61C8
:100C64007B6A4FEA93437B627B6A0D2B04D07B6AD9
:100C740003F102037B6202E04FF006037B62FB692F
:100C8400002B06D17B6A544A02FB03F27B681A608C
:100C94003EE04E4BDB6A03F480337B614B4BDB6AF3
:100CA40003F00F0303F101033B617B69002B09D1BE
:100CB400484A3B69B2FBF3F37A6A02FB03F27B68AE
:100CC4001A6025E0414BDB6A03F0F0034FEA13138B
:100CD40003F10103FB603D4BDB6A03F470634FEAED
:100CE400132303F10203BB603A4AFB68B2FBF3F33C
:100CF400BA6802FB03F23B69B2FBF3F37A6A02FBC4
:100D040003F27B681A6003E07B68314A1A6000BF13
:100D14002E4B5B6803F0F0033B623B6A4FEA13130C
:100D24003B622E4A3B6AD3181B78DBB2BB617B68FB
:100D34001A68BB6922FA03F27B685A60234B5B682A
:100D440003F4E0633B623B6A4FEA13233B62234AAA
:100D54003B6AD3181B78DBB2BB617B685A68BB69FA
:100D640022FA03F27B689A60184B5B6803F46053C1
:100D74003B623B6A4FEAD3233B62184A3B6AD3186F
:100D84001B78DBB2BB617B685A68BB6922FA03F249
:100D94007B68DA600D4B5B6803F440433B623B6A5B
:100DA4004FEA93333B620E4A3B6AD3181B78DBB29B
:100DB400BB617B68DA68BB69B2FBF3F27B681A61DA
:100DC40007F12C07BD4680BC704700BF00100240ED
:100DD40000127A0040787D0100093D0000000020E7
:100DE4001000002080B483B000AF78600B46FB7025
:100DF400FB78002B07D00B4B0A4A91697A6841EAC9
:100E040002029A6108E0074B064A91697A686FEA20
:100E1400020201EA02029A6107F10C07BD4680BC96
:100E2400704700BF0010024080B483B000AF786008
:100E34000B46FB70FB78002B07D00B4B0A4AD16999
:100E44007A6841EA0202DA6108E0074B064AD1698E
:100E54007A686FEA020201EA0202DA6107F10C071A
:100E6400BD4680BC704700BF0010024080B58CB006
:100E740000AF786039604FF00003FB624FF000036D
:100E8400BB624FF000037B624FF000033B624FF004
:100E94000003FB617B68FB617B681B8A9BB2FB627E
:100EA400FA6A4CF6FF7302EA0303FB623B68DB88D1
:100EB400FA6A42EA0303FB62FB6A9AB27B681A820B
:100EC4007B689B899BB2FB62FA6A4EF6F31302EAD3
:100ED4000303FB623B689A883B681B8942EA03036D
:100EE4009AB23B685B8942EA03039BB2FA6A42EA1C
:100EF4000303FB62FB6A9AB27B689A817B689B8AD4
:100F04009BB2FB62FA6A4FF6FF4302EA0303FB62F9
:100F14003B689B89FA6A42EA0303FB62FB6A9AB262
:100F24007B689A8207F108031846FFF75FFEFA69A7
:100F3400384B9A4202D17B69BB6201E03B69BB62D8
:100F44007B689B899BB29BB21BB2002B0FDABA6AF7
:100F540013464FEA83039B184FEA83029A183B68AF
:100F64001B684FEA4303B2FBF3F37B620EE0BA6AF9
:100F740013464FEA83039B184FEA83029A183B688F
:100F84001B684FEA8303B2FBF3F37B627A6A224B5A
:100F9400A3FB02134FEA53134FEA0313FB62FB6AEA
:100FA4004FEA13134FF0640202FB03F37A6AD31A75
:100FB4003B627B689B899BB29BB21BB2002B10DA0D
:100FC4003B6A4FEAC30303F13202134BA3FB021340
:100FD4004FEA531303F00703FA6A42EA0303FB627E
:100FE4000FE03B6A4FEA031303F132020A4BA3FBFF
:100FF40002134FEA531303F00F03FA6A42EA03039E
:10100400FB62FB6A9AB27B681A8107F13007BD461E
:1010140080BD00BF003801401F85EB5180B485B00E
:1010240000AF786039604FF00003FB607B681B8A77
:101034009BB2FB60FA684FF2FF0302EA0303FB6012
:101044003B681A883B685B8842EA03039AB23B68B0
:101054009B8842EA03039AB23B68DB8842EA0303B3
:101064009BB2FA6842EA0303FB60FB689AB27B68AE
:101074001A8207F11407BD4680BC704780B483B060
:1010840000AF78607B684FF000021A807B684FF0F5
:1010940000025A807B684FF000029A807B684FF010
:1010A4000002DA8007F10C07BD4680BC704700BF20
:1010B40080B483B000AF78600B46FB70FB78002BE4
:1010C40008D07B689B899BB243F400539AB27B6837
:1010D4009A8107E07B689B899BB223F400539AB200
:1010E4007B689A8107F10C07BD4680BC704700BF3E
:1010F40080B487B000AF786013460A467A807B706C
:101104004FF000033B614FF00003FB604FF000031E
:10111400BB604FF000037B617B687B617B88DBB243
:101124004FEA5313DBB23B617B8803F01F03FB6080
:10113400FB684FF0010202FA03F3BB603B69012B29
:1011440004D17B6903F10C037B610BE03B69022B47
:1011540004D17B6903F110037B6103E07B6903F134
:1011640014037B617B78002B07D07B697A69116853
:10117400BA6841EA02021A6008E07B697A69116878
:10118400BA686FEA020201EA02021A6007F11C0758
:10119400BD4680BC704700BF80B483B000AF7860A8
:1011A4000B467B807B884FEAC3534FEAD3539AB2F2
:1011B4007B689A8007F10C07BD4680BC704700BF6E
:1011C40080B483B000AF78607B689B889BB24FEAA1
:1011D400C3534FEAD3539BB2184607F10C07BD46DD
:1011E40080BC704780B485B000AF78600B467B80CC
:1011F4004FF00003FB737B681B889AB27B8802EA7A
:1012040003039BB2002B03D04FF00103FB7302E0F6
:101214004FF00003FB73FB7B184607F11407BD4630
:1012240080BC704780B487B000AF78600B467B8089
:101234004FF00003FB604FF000037B614FF00003AD
:10124400BB604FF00003FB747B88DBB24FEA53139F
:10125400DBB2BB607B8803F01F037B617B694FF0CB
:10126400010202FA03F37B61BB68012B07D17B689F
:101274009B899BB27A6902EA03037B6111E0BB6834
:10128400022B07D17B681B8A9BB27A6902EA0303AB
:101294007B6106E07B689B8A9BB27A6902EA03035E
:1012A4007B617B884FEA13239BB2FB60FB684FF0A2
:1012B400010202FA03F3FB607B681B889BB2FA68A5
:1012C40002EA0303FB607B69002B06D0FB68002B5A
:1012D40003D04FF00103FB7402E04FF00003FB74F2
:1012E400FB7C184607F11C07BD4680BC704700BF55
:1012F40080B584B000AFF860384680E80C000B4637
:10130400FB72FB68184600F0CBFBFB7AF8681946C1
:101314003B460CCB00F006F8FB68184607F11007B3
:10132400BD4680BD80B588B000AFF860384680E81F
:101334000C000B46FB72FB683A4692E8030083E814
:101344000300FB68FA7A1A72244A07F1140392E83C
:101354000300186003F1040319804FF00003FB61DC
:1013640013E0F968FB681A7A07F11400FB694FEA85
:101374004303C318084611461A464FF0020300F00F
:1013840019FCFB6903F10103FB61FB69022BCCBF70
:1013940000230123DBB2002BE3D1F8684FF00201F4
:1013A4004FF0000200F01CF8F8684FF004014FF011
:1013B400000200F015F8F8684FF005014FF0000244
:1013C40000F00EF8F8684FF003014FF0000200F04F
:1013D40007F807F12007BD4680BD00BFB01E000816
:1013E40080B584B000AF786013460A46FA70BB70CB
:1013F400FB783B73BB787B7379687B681A7A07F157
:101404000C03084611461A464FF0020300F0D2FBC3
:1014140007F11007BD4680BD80B483B000AF03461A
:101424003960FB7197F90730002B0DDA0E49FB790F
:1014340003F00F03A3F104033A68D2B24FEA021295
:10144400D2B2CB181A760AE0084997F907303A68FD
:10145400D2B24FEA0212D2B2CB1883F8002307F1BA
:101464000C07BD4680BC704700ED00E000E100E0E1
:1014740080B582B000AF78607A686FF07F439A429B
:1014840002D94FF0010316E00D4B7A6822F07F4237
:1014940002F1FF325A604FF0FF304FF00F01FFF7B7
:1014A400BBFF074B4FF000029A60054B4FF0070259
:1014B4001A604FF00003184607F10807BD4680BDC7
:1014C40010E000E080B58CB000AFFEF7D5FE6048B8
:1014D4004FF0000100F0DAF85E484FF0010100F02F
:1014E400D5F85B4800F016F95A4800F003F95A4859
:1014F4004FF0020100F03EF95748584900F024FA31
:101504005748FFF7B5FF534800F014F907F11C03DF
:1015140018464FF0010100F0CFFA07F11003184606
:101524004FF0000107F11C030CCBFFF7E1FE07F1BC
:10153400100318464FF002014FF0FF02FFF750FF6F
:101544004548484900F000FA474B1B88BB8107F126
:10155400100318464FF004014FF00002FFF740FF5C
:1015640007F1100318464FF003014FF00002FFF794
:1015740037FF07F1100318464FF005014FF0000242
:10158400FFF72EFF334800F0D5F84FF00303FB625A
:1015940054E04FF00003BB6244E007F11C0207F182
:1015A4000C0310464FF038011A464FF0020300F0C6
:1015B40001FB4FF0A9033B7307F11C0207F10C0375
:1015C40010464FF038011A464FF0010300F064FB57
:1015D40007F11C0207F1040310464FF038011A46C4
:1015E4004FF0050300F0C2FBBB7907F1100210466F
:1015F4004FF005011A46FFF7F3FE4FF000037B623C
:1016040003E07B6A03F101037B627A6A174B9A4217
:10161400CCBF00230123DBB2002BF2D1BB6A03F160
:101624000103BB62BB6AFF2BCCBF00230123DBB2E7
:10163400002BB2D1FB6A03F10103FB62FB6A052BA9
:10164400CCBF00230123DBB2002BA2D19DE700BF56
:1016540014000020180000201C0000207C1E00083C
:10166400809698008C1E0008B81E00089F86010012
:1016740080B500AF034800F05DF8034800F05AF865
:1016840080BD00BF180000201400002080B584B085
:1016940000AF78600B46FB704FF010004FF0010173
:1016A400FFF7A0FBFB78012B04D07B684FF04002CE
:1016B4001A8004E07B684FF080021A8000BF4FF06C
:1016C4000103BB734FF01003FB7307F10C030848CD
:1016D4001946FEF723FF7B681B88BB8107F10C03C7
:1016E40003481946FEF71AFF07F11007BD4680BDEF
:1016F4000010014080B582B000AF78607B681B8821
:1017040003481946FFF708F807F10807BD4680BDEE
:101714000010014080B582B000AF78607B681B8800
:1017240003481946FFF706F807F10807BD4680BDD0
:101734000010014080B582B000AF78607B681B88E0
:101744000B481946FEF7CAFF0346002B0CBF0023C3
:101754000123DBB2002B03D07868FFF7DBFF02E044
:101764007868FFF7C7FF07F10807BD4680BD00BFD3
:101774000010014080B58CB000AF78600B46FB7060
:101784007B684FF0000283F849207B6893F8493066
:101794007A68D3184FF000025A72FB78022B15D1E5
:1017A4007B684E4A1A607B684FF020029A807B68FF
:1017B4004FF04002DA807B684FF026021A724FF431
:1017C4000033FB624FF02103BB6200BFF86A4FF0A5
:1017D4000101FFF729FBB86A4FF00101FFF702FB93
:1017E4007B689B88BB844FF0180387F827304FF041
:1017F400030387F8263007F1240339481946FEF716
:101804008DFE7B68DB88BB844FF0040387F82730A8
:1018140007F1240332481946FEF780FE07F11C0342
:101824001846FFF72BFC7B681A6807F11C03104667
:101834001946FFF7F3FB4FF4E133FB604FF000036D
:101844003B824FF000037B824FF00003BB824FF0DA
:1018540000033B834FF00C03FB824FF008004FF072
:101864000101FEF775FF7B681A6807F10C03104647
:101874001946FFF7FBFA7B681B6818464FF0010115
:10188400FFF716FC00BF15484FF04001FFF7AAFC14
:101894000346002B14BF00230123DBB2002BF2D13B
:1018A4007B681B68184640F225514FF00102FFF790
:1018B4001FFC4FF026033B724FF002037B724FF084
:1018C4000303BB724FF00103FB7207F108031846D0
:1018D400FEF7B8FD07F13007BD4680BD0044004067
:1018E4000014014080B582B000AF78600B46FB70F5
:1018F40000BF7B681B6818464FF04001FFF772FC7D
:101904000346002B14BF00230123DBB2002BF0D1CC
:101914007B681A68FB789BB210461946FFF73CFCBB
:1019240007F10807BD4680BD80B582B000AF78607E
:101934007B681B681846FFF743FC0346DBB2184676
:1019440007F10807BD4680BD80B584B000AF78605C
:1019540039604FF00003FB600BE0FB683A68D31872
:101964001B78FA6802F10102FA6078681946FFF7F9
:10197400B9FFFB683A68D3181B78002B0CBF00230F
:101984000123DBB2002BE8D107F11007BD4680BD6F
:1019940080B582B000AF78600B46FB70FB780D2BEE
:1019A4002DD178684FF00D01FFF79CFF78684FF058
:1019B4000A01FFF797FF78682449FFF7C5FF7B68A2
:1019C40003F1090378681946FFF7BEFF78684FF002
:1019D4000D01FFF787FF78684FF00A01FFF782FFD8
:1019E40078684FF03E01FFF77DFF7B684FF00002FF
:1019F40083F849207B684FF000025A7221E07B682B
:101A040093F849303F2B1CD8FB7878681946FFF7C8
:101A140069FF7B6893F849307A68D318FA785A7268
:101A24007B6893F8493003F10103DAB27B6883F8E9
:101A340049207B6893F849307A68D3184FF0000244
:101A44005A7207F10807BD4680BD00BF9C1E0008FE
:101A540080B582B000AF0F4840F22551FFF7E2FB9A
:101A64000346002B0CBF00230123DBB2002B0CD058
:101A74000948FFF75FFE0948FFF756FF0346FB716D
:101A8400FB7906481946FFF783FF07F10807BD46AF
:101A940080BD00BF00440040180000201C0000204E
:101AA40080B483B000AF78607B68184607F10C07F8
:101AB400BD4680BC704700BF80B582B000AF78607F
:101AC4000B46FB70FB787868194600F007F87B68D2
:101AD400184607F10807BD4680BD00BF80B58AB02F
:101AE40000AF78600B46FB70FB78012B11D17B684B
:101AF4002D4A1A607B684FF480729A807B684FF499
:101B04000072DA804FF400137B624FF009033B62EA
:101B140000BF786A4FF00101FFF786F9386A4FF089
:101B24000101FFF75FF97B689B88BB834FF01C03BF
:101B3400FB774FF00303BB7707F11C031B481946DF
:101B4400FEF7ECFC7B68DB88BB8307F11C031748BA
:101B54001946FEF7E3FC4FF000033B824BF6FF739C
:101B64007B824FF00303BB824FF48063FB824FF40C
:101B740080433B830E4BFB6007F10C030A48194674
:101B8400FEF768FE4FF002004FF00101FEF7E0FDA2
:101B94007B681B6818464FF00101FEF733FF07F11D
:101BA4002807BD4680BD00BF00540040000C014022
:101BB400400D030080B586B000AFF8607A600A4635
:101BC400FA72FB70FB681B6818464FF00101FEF7C0
:101BD40039FF00BFFB681B6818462C49FEF7CEFF8F
:101BE4000346002B14BF00230123DBB2002BF1D1E9
:101BF400FB681A68FB7A104619464FF00002FEF79C
:101C04009FFF00BFFB681B6818462149FEF7B6FF1B
:101C14000346002B14BF00230123DBB2002BF1D1B8
:101C24004FF00003FB751CE0FB681A68FB7D7968C4
:101C3400CB181B7810461946FEF764FF00BFFB68FB
:101C44001B6818461349FEF799FF0346002B14BF7F
:101C540000230123DBB2002BF1D1FB7D03F101034F
:101C6400FB75FA7DFB789A422CBF00230123DBB27B
:101C7400002BD9D1FB681B6818464FF00101FEF711
:101C840001FF07F11807BD4680BD00BF0100030036
:101C9400820007008400070080B586B000AFF860BA
:101CA4007A600A46FA72FB70FB681B6818464FF0AC
:101CB4000101FEF7C7FE00BFFB681B6818462849F0
:101CC400FEF75CFF0346002B14BF00230123DBB2A5
:101CD400002BF1D1FB681A68FB7A104619464FF0C5
:101CE4000002FEF72DFF00BFFB681B6818461D4964
:101CF400FEF744FF0346002B14BF00230123DBB28D
:101D0400002BF1D14FF00003FB751CE0FB681A684F
:101D1400FB7D7968CB181B7810461946FEF7F2FE56
:101D240000BFFB681B6818460F49FEF727FF0346F0
:101D3400002B14BF00230123DBB2002BF1D1FB7D68
:101D440003F10103FB75FA7DFB789A422CBF002353
:101D54000123DBB2002BD9D107F11807BD4680BDA2
:101D640001000300820007008400070090B587B0DB
:101D740000AFF8607A600A46FA72FB70FB681B6871
:101D840018464FF00101FEF79DFEFB681B681846DC
:101D94004FF00101FEF756FE00BFFB681B681846B2
:101DA4003249FEF7EBFE0346002B14BF0023012348
:101DB400DBB2002BF1D1FB681A68FB7A1046194696
:101DC4004FF00102FEF7BCFE00BFFB681B6818461B
:101DD4002749FEF7D3FE0346002B14BF002301233B
:101DE400DBB2002BF1D14FF000037B612AE0FB78DA
:101DF40003F1FF327B699A4207D1FB681B681846DE
:101E04004FF00001FEF75EFE00E000BFFB681B68B8
:101E140018461849FEF7B2FE0346002B14BF0023F0
:101E24000123DBB2002BF1D17B697A68D418FB68FB
:101E34001B681846FEF776FE034623707B6903F1A0
:101E440001037B61FA787B699A42D4BF00230123A2
:101E5400DBB2002BCBD1FB681B6818464FF00101A5
:101E6400FEF710FE07F11C07BD4690BD01000300FC
:101E740002000300400003000D0A537461727421D0
:101E8400210D0A0D0A0000004B414D4F44204D45E1
:101E94004D5320320D0A00004F74727A796D616ED1
:101EA4006F206B6F6D656E64653A20000000010061
:081EB40008FF00002067000098
:101EBC0000000000010203040102030406070809E4
:041ECC0002040608FE
:04000005080001E40A
:00000001FF
